:020000040800F2
:1000000000500020D93F00084106000843060008C0
:1000100045060008470600084906000800000000E1
:10002000000000000000000000000000D1280008CF
:100030004B0600080000000061290008A5290008FF
:10004000214000082140000821400008214000080C
:1000500021400008214000082140000821400008FC
:100060002140000821400008214000084D060008FA
:1000700021400008214000082140000821400008DC
:1000800021400008214000082140000821400008CC
:1000900021400008214000082140000821400008BC
:1000A00021400008214000082140000821400008AC
:1000B000214000082140000859060008214000089E
:1000C000214000082140000821400008214000088C
:1000D000214000082140000821400008214000087C
:1000E00021400008214000082140000800000000D5
:1000F0000000000000000000000000000000000000
:0C01000000000000000000005FF808F1A3
:1001100010B5054C237833B9044B13B10448AFF341
:1001200000800123237010BD10000020000000009B
:100130009840000808B5034B1BB103490348AFF3CF
:10014000008008BD00000000140000209840000856
:100150001FB53048304A002302604FF48072CDE969
:1001600001330393826003734FF4002203754360ED
:100170000623C261036100F035FC08B100F0F0F91C
:1001800001230422CDE901230723224801A9039377
:1001900000F05CFB08B100F0E3F94FF0050E02231C
:1001A0001C4801A9CDE901E300F050FB08B100F0C3
:1001B000D7F94FF0060C0323164801A9CDE901C376
:1001C00000F044FB08B100F0CBF907200423CDE98F
:1001D00001030DEB03010F4800F038FB08B100F0FC
:1001E000BFF9082105230B48CDE9011301A900F04F
:1001F0002DFB08B100F0B4F909220623054801A936
:10020000CDE9012300F022FB08B100F0A9F905B007
:100210005DF804FB7000002000240140102230B57E
:10022000054689B00DEB0200002103F0FAFE2A68B2
:10023000254B9A4245D103F56C439A69032442F455
:1002400000729A619A69214802F400720192019A3F
:100250009A6904A942F004029A619A6902F00402C0
:100260000292029A9A6942F008029A619B6903F02D
:1002700008030393039BF023CDE9043400F028FE28
:10028000134804A9CDE9044400F022FE0023114CD8
:10029000114A8021C4E90023A3604FF480734FF416
:1002A0008060C4E903132023C4E905034FF480539D
:1002B0002046E36100F0E4FC08B100F051F92C6243
:1002C000656209B030BD00BF002401400008014054
:1002D000000C01402C000020080002400A4B07B52A
:1002E0005A69052142F001025A615B69002203F05C
:1002F000010301930B20019B00F06CFC0B2003B069
:100300005DF804EB00F0A8BC0010024008B5012025
:1003100002F028FAFBE7000008B50021034A044870
:1003200002F0C8F9034B186008BD00BFBC400008CC
:100330000D030008A0000020102230B589B00DEB9D
:100340000200002103F06DFE264B274D9A692846D6
:1003500042F010029A619A694FF4005102F01002C3
:100360000092009A9A69002442F020029A619A69E8
:1003700002F020020192019A9A6942F004029A6105
:100380009A6902F004020292029A9A6942F0080203
:100390009A619B69012203F008030393039B00F019
:1003A000F1FE4FF400521123CDE904230223284625
:1003B00004A9CDE9064300F08BFD4FF2380304A9F0
:1003C0000A48CDE90434069400F082FD4FF4074357
:1003D000074804A9CDE90434069400F079FD09B07A
:1003E00030BD00BF0010024000100140000C014071
:1003F0000008014008B50B480B4A0C4BC0E900232C
:1004000000234FF48042C0E90233C0E90423C0E96D
:100410000633036200F0D0FE18B1BDE8084000F0DA
:100420009FB808BDA400002000540040A086010031
:1004300010B5044686B01022002102A803F0F1FD99
:100440002268114B9A421CD1104CC022A36910485B
:1004500043F00803A361A36902A903F00803009312
:10046000009B1223CDE902230323059300F030FD06
:10047000E36943F40013E361E36903F400130193B8
:10048000019B06B010BD00BF0054004000100240A8
:10049000000C014010B594B0142200210CA803F008
:1004A000C0FD142200210DEB020003F0BAFD102262
:1004B000002101A803F0B5FD02244FF4803301228E
:1004C000CDE91143CDE90A234FF4E0130AA80E92B7
:1004D000139300F0F5FF08B172B6FEE70F23CDE9E4
:1004E00005344FF480630790CDE90830214605A814
:1004F00001F01AFA08B172B6FEE7122301934FF425
:100500000043CDE9033001A801F052FB08B172B6F7
:10051000FEE714B010BD08B500F074F9FFF7BAFF9C
:10052000FFF70AFFFFF7DAFEFFF712FEFFF762FFA1
:1005300000F0E4F800F03AF900F096F802F07EF8E6
:10054000FFF7EAFE02F096F8FEE700000268034BB0
:100550009A4201D100F068B9704700BF000800401E
:1005600072B6FEE7704700000D4B82B09A690F210A
:1005700042F001029A619A696FF0010002F00102F3
:100580000092009ADA6942F08052DA610022DB6957
:1005900003F080530193019B02B000F01BBB00BF2E
:1005A00000100240214B70B5DA6988B042F00402B5
:1005B000DA61DB69054603F00403029301A903A88D
:1005C000029B01F0C5FA069B4BBB01F0A1FA184E45
:1005D000184B336040F2E733F360174BB0FBF3F393
:1005E000013B7360002330463361B360B36101F0B7
:1005F0008FFC044680B9304601F078FB044658B9B8
:100600001E2000F029FB0F2D0DD8224629461E2062
:1006100000F0E0FA094B1D60204608B070BD01F003
:1006200077FA4000D3E70124F6E700BF001002404C
:10063000F80000200008004040420F0008000020A1
:10064000FEE7FEE7FEE7FEE7FEE77047014800F041
:10065000ABBB00BF2C000020014801F08DBB00BFE8
:10066000F8000020704700007FB51022002102A88A
:1006700003F0D7FC0B22154815490023C0E90012EE
:100680004EF65F22CDE90033C0E903238360836126
:1006900001F03EFC08B1FFF763FF4FF480530B48B5
:1006A00002A9029301F0B4FC08B1FFF759FF202220
:1006B000002369460548CDE9002301F06BFE08B12F
:1006C000FFF74EFF07B05DF804FB00BF40010020BC
:1006D000000400400268084B82B09A420AD103F538
:1006E0000333DA6942F00202DA61DB6903F00203E4
:1006F0000193019B02B070470004004008B54FF41D
:10070000E1330B480B4A0C21C0E9002300234FF4CE
:100710008072C0E90233C0E905120361C36101F0D0
:10072000F9FE18B1BDE80840FFF71ABF08BD00BFC9
:10073000880100200044004010B5044686B0102215
:10074000002102A803F06DFC2268164B9A4226D1C4
:1007500003F5E633DA69144842F40032DA61DA6903
:1007600002A902F400320092009A9A6942F004024F
:100770009A619B69062203F004030193019B022303
:10078000CDE902230323059300F0A2FB08210023F7
:100790000548CDE9021302A9049300F099FB06B0C5
:1007A00010BD00BF004400400008014008B5082308
:1007B0000848094AC0E90023022383600023C0E9F6
:1007C0000633036200F0FCFD18B1BDE80840FFF7F6
:1007D000C7BE08BDD0010020005C00400268084B85
:1007E00082B09A420AD103F5DA33DA6942F40002A0
:1007F000DA61DB6903F400030193019B02B07047E7
:10080000005C0040074A08B51368032043F010035A
:10081000136000F0C1F90F20FFF7C4FEFFF7A4FE3C
:10082000002008BD00200240034A044B11681B78D9
:100830000B441360704700BFC00400200400002078
:10084000014B1868704700BFC0040020002373B537
:100850004D4A01930368044693420D4608D002F5C1
:100860008062934204D040F2D6714848FFF77AFE86
:100870002B68112B04D940F2D7714448FFF772FE60
:100880006B68013B0F2B04D94FF4FB613F48FFF726
:1008900069FEAB68072B04D940F2D9713B48FFF7DA
:1008A00061FE94F82430012B6CD0012384F82430AD
:1008B000686822680628296800EB800322D81F2672
:1008C000506B053B9E4020EA060001FA03F3034308
:1008D00053630929AB6801EB41004FF0070529D9A3
:1008E000D6681E38854026EA050583402B43D36031
:1008F000A1F11003012B25D90020002384F8243016
:1009000002B070BD0C284FF01F0009D8166B233BB6
:10091000984026EA000001FA03F303431363D8E783
:10092000D66A413B984026EA000001FA03F30343EC
:10093000D362CEE71169854021EA050183400B436C
:100940001361D9E7104B9A4216D193681B02D3D496
:100950009368102943F400039360CDD10C4B0D4AEA
:100960001B68B3FBF2F30A2253430193019B002B54
:10097000C2D0019B013BF8E7A36A012043F02003AA
:10098000A362BAE70220BBE700240140F840000858
:100990000000002040420F0038B5036804469A6802
:1009A000D10701D4002038BD9A6822F001029A6074
:1009B000FFF746FF054623689B68DB07F2D5FFF784
:1009C0003FFF401B0228F6D923689B68DA07F2D55F
:1009D000A36A012043F01003A362E36A43F001031A
:1009E000E362E0E7F8B50446002800F0C58003683C
:1009F000654A934208D002F58062934204D040F2E7
:100A0000A9116248FFF7AEFD636833F4006304D0B8
:100A10004FF4D5715D48FFF7A5FDA36833F48073EB
:100A200004D040F2AB115948FFF79CFD237B012B0A
:100A300004D94FF4D6715548FFF794FDE36933F4B8
:100A400020220CD023F40022B2F5C02F07D0B3F53A
:100A5000402F04D040F2AD114C48FFF783FDA3684E
:100A6000DBB12369013B0F2B04D940F2B111474898
:100A7000FFF778FD237D012B04D94FF4D97143484A
:100A8000FFF770FD237D43B1A369013B072B04D918
:100A900040F2B5113D48FFF765FDA36A2BB920462A
:100AA000E36284F82430FFF7B9FB2046FFF774FFB8
:100AB000A36A13F0100361D100285FD1A26A6168B4
:100AC00022F4885222F0020242F00202E569A6688E
:100AD000A262227B2943B6F5807F41EA420136D0EB
:100AE000771E7D427D412D02277D012F06D182BBDD
:100AF000A269013A45EA423242F400652268B6F53D
:100B0000807F576827F4694745EA0705556097686D
:100B10001F4D05EA070545EA0105956001D0012E44
:100B200002D12369013B1B05D56A25F470052B43CF
:100B3000D3629268174B1340994213D10023E362AA
:100B4000A36A23F0030343F00103A362F8BD354613
:100B5000CAE7A26A42F02002A262E26A42F00102FF
:100B6000E262CBE7A36A23F0120343F01003A3620F
:100B7000E36A43F00103E3620120E7E7A36A43F07D
:100B80001003A362F8E700BF00240140F84000080A
:100B9000FDF7E1FFFE0E1FFFC31E042B10B5044638
:100BA00003D991210948FFF7DDFC09492302CA68EE
:100BB00003F4E06322F4E0621204120C134343F0E6
:100BC000BF6343F40033CB6010BD00BF2D4100086C
:100BD00000ED00E00F2A70B505460C46164603D915
:100BE000A9211A48FFF7BEFC0F2C03D9AA211748E8
:100BF000FFF7B8FC164BD968C1F30221C1F1070316
:100C00000A1D042B28BF0423062A4FF0FF3294BF8D
:100C10000021033902FA03F324EA03038A4026EA97
:100C200002068B40002D43EA0603ACBF05F1604588
:100C3000084A4FEA0313DBB2ABBF05F5614505F087
:100C40000F0585F80033535570BD00BF2D410008D6
:100C500000ED00E014ED00E0002808DB012341096D
:100C6000054A00F01F00834042F821307047BD2143
:100C70000248FFF777BC00BF00E100E02D4100080B
:100C800010B50446002800F084800368424A93426D
:100C900015D01432934212D0143293420FD0143232
:100CA00093420CD01432934209D01432934206D0AE
:100CB0001432934203D099213848FFF753FC6368FC
:100CC00033F0100206D0B3F5804F03D09A21334899
:100CD000FFF748FCA36833F0400303D09B212F4863
:100CE000FFF740FCE36833F0800303D09C212B48DE
:100CF000FFF738FC236933F4807206D0B3F5007F28
:100D000003D09D212548FFF72DFC636933F48062F1
:100D100006D0B3F5006F03D09E212048FFF722FCD8
:100D2000A36933F0200303D09F211C48FFF71AFC6E
:100D3000E36933F4405303D0A0211848FFF712FCB5
:100D400014222168164B0B44B3FBF2F39B0023647F
:100D5000144BE363022384F82130D4E901300343C8
:100D6000E0680A680343206922F47F520343606904
:100D700022F030020343A0690343E06903431343B5
:100D80000B6000200123A06384F8200084F8213048
:100D900010BD0120FCE700BF0800024065410008CB
:100DA000F8FFFDBF0000024070B40425C66B026C62
:100DB0003468036895402542196832D04D0730D514
:100DC0001A6896065EBF1A6822F004021A603E4A4C
:100DD000934219D01432934218D01432934217D050
:100DE0001432934217D01432934217D014329342E4
:100DF00014BF4FF080634FF48003344A5360C36ADA
:100E0000002B5ED070BC18470423F6E74023F4E7BC
:100E10004FF48063F1E74FF48043EEE74FF4802313
:100E2000EBE702259540254235D08D0733D51A686A
:100E3000940606D41A6822F00A021A60012280F889
:100E40002120214A934219D01432934218D01432EF
:100E5000934217D01432934217D01432934217D0D2
:100E60001432934214BF4FF000734FF40013174A2B
:100E70005360002380F82030836AC1E70223F6E73D
:100E80002023F4E74FF40073F1E74FF40053EEE74B
:100E90004FF40033EBE708259540254211D00907B0
:100EA0000FD5196821F00E011960012303FA02F22F
:100EB0007260836380F82130002380F82030036B58
:100EC0009EE770BC704700BF08000240000002406F
:100ED0002DE9F04FDFF88492044648450D4685B071
:100EE00012D09F4B98420FD003F5806398420BD0ED
:100EF00003F58063984207D003F58063984203D0DE
:100F0000BD219848FFF72EFB2B689AB212B1B3F5BA
:100F1000803F03D3BE219348FFF724FB6B68012B6E
:100F200015D9914A934212D01DD8A2F5801293424E
:100F30000DD009D8032B0AD9113B012B07D9BF21AA
:100F40008848FFF70FFB02E0884A9342F7D100235D
:100F50009846DFF81CA2874E296831FA08F20AD1B8
:100F600005B0BDE8F08F844A9342F0D023F480139B
:100F7000A2F57022E9E7012202FA08FB01EA0B0759
:100F80003BEA010140F087804C4513D074498C4204
:100F900010D07A4A94420DD001F500618C4209D0FC
:100FA00001F580618C4205D0CD216E480193FFF799
:100FB000D9FA019B6968032906D8013902297DD82D
:100FC000DFE801F096ABC100122900F0B18065D8CE
:100FD000112900F09780FF2F98BF21464FF00F0C8A
:100FE0004FEA880084BF211D20380A680CFA00FEF1
:100FF00022EA0E0203FA00F002430A606868C200A7
:1010000049D5DAF8182028F0030142F00102CAF8A5
:101010001820DAF8182001F1804102F00102039251
:1010200001F5803108F0030E039A4FEA8E0E8A68AC
:101030000CFA0EFC4C4522EA0C0C00F08880484A61
:10104000944200F0868002F58062944200F0838032
:1010500002F58062944214BF0422032202FA0EF2C7
:1010600042EA0C028A60B268C1024CBF3A43BA43FA
:10107000B260F26881024CBF3A43BA43F2607268D0
:1010800081034CBF3A43BA4372603268C1034CBF1C
:101090003A43BA43326008F101085DE738488142BB
:1010A0000CD01FD8A0F58010814207D000F5702029
:1010B000814203D0A0F5801081428CD1AB68022B15
:1010C00003D9F7212748FFF74DFAAB68002B3CD036
:1010D000012B08BFC4F810B04FF0080318BFC4F8C4
:1010E00014B078E724488142E8D000F58030E3E787
:1010F000EB68013B022B03D9D5211A48FFF732FADE
:10110000EB6868E7EB68013B022B03D9DC2115484B
:10111000FFF728FAEB6804335DE7EB68013B022B2D
:1011200003D9E3210F48FFF71DFAEB68083352E7B4
:10113000EB68013B022B03D9EA210A48FFF712FAB8
:10114000EB680C3347E7002345E7042343E700221D
:1011500084E7012282E7022280E700BF0008014005
:10116000000C01409A4100080000211000001210FC
:101170000010024000040140000031100010014046
:101180000000221070B5054616460C4621B94FF4F2
:10119000EA710848FFF7E6F9012E06D940F2D511A9
:1011A0000448FFF7DFF92C6170BD002EFBD1240449
:1011B000F9E700BF9A41000870B5044608B901205C
:1011C00070BD0368774A934208D002F5806293426B
:1011D00004D040F2DB117448FFF7C4F96368734A26
:1011E000013B934204D94FF4EE716F48FFF7BAF90F
:1011F000A36833F4804304D040F2DD116A48FFF75E
:10120000B1F9E368B3F5806F04D34FF4EF7166482A
:10121000FFF7A8F9236923F40043B3F5804F04D006
:1012200040F2DF116048FFF79DF96369012B04D993
:101230004FF4F0715C48FFF795F9A36933F0FE03B2
:1012400004D040F2E1115848FFF78CF9E36933F01C
:10125000400304D04FF4F1715348FFF783F9236A38
:1012600033F0800304D040F2E3114F48FFF77AF9DE
:1012700094F83D3003F0FF0223B9204684F83C2067
:10128000FFF7D6F8242384F83D3023681A6822F04B
:1012900001021A601A6842F400421A601A6822F4C5
:1012A00000421A6000F034FC414B65689D4294BFD7
:1012B000404B414B984282D9404A2168B0FBF2F240
:1012C0004B6823F03F0313434B60431E38480E6ABC
:1012D000854226F03F0639D8013232430A626A005D
:1012E000B3FBF2F2531C40F6FC72C869134220F4BF
:1012F0004F4020F0FF0045D104230343CB610A682F
:10130000D4E9073022F0C002034313430B608A681C
:10131000D4E9030322F40342034322F0FF02134300
:101320008B60CA68D4E9053022F0FF0203431343FF
:10133000CB600B68002043F001030B602023206486
:1013400084F83D30206384F83E0039E74FF496700E
:1013500042434FF47A70B2FBF0F2013232430A6238
:10136000C869A26820F44F4020F0FF006AB119223A
:101370006A43B3FBF2F30133C3F30B0383B143F4CA
:101380004043BAE7C3F30B03B7E705EB4502B3FBF2
:10139000F2F20132C2F30B0313B143F40043ACE7A2
:1013A0000123AAE700540040D04100087F1A06003C
:1013B000A08601007F841E00FF083D0040420F0010
:1013C000F0B5044687B058B302683B4B9A4203D04D
:1013D00091213A48FFF7C6F894F8A93203F0FF02CA
:1013E00023B9204684F8A822FFF7F8F903232546FD
:1013F0006E4684F8A93255F8100B01F0FCF80FCDB9
:101400000FC62B6825463360271D55F8100B97E84B
:101410000E0001F0E9F8064630B1022384F8A93243
:101420000125284607B0F0BD0146206801F0EDF81F
:1014300031464FF0010E28260A46D4F804C0C8B23F
:10144000844501F101011DD8002128260A46C8B2B1
:10145000844501F1010121D80FCD6E460FC62B68DE
:101460003360206897E80E0001F0D1F805460028A7
:10147000D3D1012384F82400206884F8A93201F034
:10148000DAF8CEE706FB0043C3E90E2283F829E031
:1014900083F8280083F82B201A64D0E706FB00436A
:1014A000C3E95E2283F8692183F8680183F86B2120
:1014B000C3F88021CBE700BF005C00400542000874
:1014C0002DE9F3410446002840D00368ABB92368F6
:1014D000190700F1C58023685A0700F1F980E36914
:1014E000022B04D940F2AD219448FFF73BF8E369A1
:1014F000002B40F06981002090E01B0704D140F2EE
:1015000065118E48FFF72EF82368DF072ED5636834
:1015100033F4803207D0B3F5A02F04D040F26B1122
:101520008648FFF71FF8864D6B6803F00C03042B09
:1015300007D06B6803F00C03082B09D16B68DE033E
:1015400006D52B689D0311D563687BB9012065E042
:101550006368B3F5803F37D12B6843F480332B6049
:10156000FFF76EF906462B68980351D523689A0752
:10157000ADD52369012B04D940F29F116F48FEF7C6
:10158000F1FF63691F2B04D94FF4D0716B48FEF74C
:10159000E9FF6B4D6B6813F00C0F07D06B6803F01D
:1015A0000C03082B3DD16B68DA033AD42B689B07F8
:1015B00002D52369012BC9D12B68626923F0F80396
:1015C00043EAC2032B6082E79BB92B6823F4803384
:1015D0002B602B6823F480232B60FFF731F906463C
:1015E0002B689903C2D5FFF72BF9801B6428F7D924
:1015F00013E0B3F5A02F2B6803D143F480232B60B5
:10160000AAE723F480332B602B6823F48023A6E71A
:10161000FFF716F9801B6428A5D9032002B0BDE8A6
:10162000F0812269474B6AB101221A60FFF708F97D
:1016300006462B689F07BFD4FFF702F9801B0228DC
:10164000F7D9EAE71A60FFF7FBF806462B68980718
:101650007FF53DAFFFF7F4F8801B0228F6D9DCE7F1
:10166000A369012B04D94FF4F0713448FEF77AFFD7
:10167000A269334E334BE2B10122C3F88024FFF755
:10168000DFF80546736A9B070DD54FF4FA522E4BCF
:101690001B68B3FBF2F3019300BF019B5A1E01923A
:1016A000002BF9D117E7FFF7CBF8401B0228E9D947
:1016B000B3E7C3F88024FFF7C3F80546736A9F07B2
:1016C0007FF509AFFFF7BCF8401B0228F6D9A4E765
:1016D000E368012B06D9052B04D040F20F211748EF
:1016E000FEF740FF164DEB69D80024D40127EB69C3
:1016F00043F08053EB61EB6903F080530093009B50
:10170000124E3368D90523D5E368012B31D12B6AFA
:1017100043F001032B62FFF793F841F28838064645
:101720002B6A9B074AD5002F3FF4D9AEEB6923F013
:101730008053EB61D3E60027E2E700BF3A4200089E
:1017400000100240000042420000002000700040F3
:10175000336843F480733360FFF772F88046336870
:10176000DA05D1D4FFF76CF8A0EB08006428F6D9AD
:1017700053E7ABB92B6A41F2883823F001032B629F
:101780002B6A23F004032B62FFF75AF806462B6AF4
:101790009807C8D5FFF754F8801B4045F7D93CE7B8
:1017A000052B2B6A03D143F004032B62AFE723F030
:1017B00001032B622B6A23F00403ABE7FFF740F829
:1017C000801B4045ACD928E7414D6A6802F00C0205
:1017D000082A6BD0022B59D1236A33F4803304D00A
:1017E00040F2B6213B48FEF7BDFE636A33F4402267
:1017F00012D0B2F5801F0FD0B2F5001F0CD023F429
:101800008022B2F5401F07D0B3F5601F04D040F22C
:10181000B7213048FEF7A6FE00222F4B1A66FFF7CD
:101820000FF806462B6899012AD4236AB3F5803F46
:101830000ED1A36833F4003304D040F2CD21254803
:10184000FEF790FE6B68A26823F4003313436B60CD
:101850006A68D4E9083122F474120B43134301225D
:101860006B601D4B1A66FEF7EBFF04462B689A016E
:101870003FF541AEFEF7E4FF001B0228F6D9CCE6A7
:10188000FEF7DEFF801B0228CCD9C6E60022124BF1
:101890001A66FEF7D5FF04462B689B017FF52BAE39
:1018A000FEF7CEFF001B0228F6D9B6E6012B3FF467
:1018B0004DAE6868236A00F480329A427FF446AEE7
:1018C000636A00F47010C01A18BF0120A6E600BFBA
:1018D000001002403A420008000042420D4A53689C
:1018E00003F00C01082912D10B48C3F38341DB0339
:1018F000405C09D55368094AC3F340435043084A42
:10190000D35CB0FBF3F07047064B58437047034875
:10191000704700BF001002407142000800127A00B8
:101920006F42000800093D002DE9F0410D460446D4
:1019300010B90120BDE8F08103681E0704D140F210
:1019400036316D48FEF70EFE022D04D940F23731D4
:101950006948FEF707FE694A136803F00703AB42C4
:101960003DD32368980745D42368DA076ED4634AC9
:10197000136803F00703AB4200F29A802368604DBE
:1019800013F0040F40F0A08023681B0717D52369CC
:1019900033F480620CD023F40072B2F5A06F07D04C
:1019A000B3F5C06F04D040F2A9315348FEF7DAFD19
:1019B0006B68226923F4605343EAC2036B60FFF74C
:1019C0008DFF6B684F4AC3F30313D35CD8404E4B73
:1019D00018604E4B1868FEF7E5FD0020AAE7136873
:1019E00023F007032B431360136803F00703AB4294
:1019F0009FD1B6E7424E13F0040F1EBF726842F447
:101A0000E0627260190742BF736843F46053736009
:101A1000A36833F0800212D023F02002902A0ED067
:101A200023F04002A02A0AD023F01002C02A06D0D8
:101A3000F02B04D040F25D312F48FEF793FD736820
:101A4000A26823F0F003134373608DE76368022BF1
:101A500004D94FF459712848FEF784FD6268284E76
:101A6000012A33681CD113F4003F3FF462AF73685E
:101A700041F2883823F0030313437360FEF7E0FE5E
:101A800007467368626803F00C03B3EB820F3FF400
:101A90006EAFFEF7D5FEC01B4045F2D9032049E7E3
:101AA000022A02D113F0007FDFE713F0020FDCE718
:101AB000136823F007032B431360136803F0070335
:101AC000AB427FF436AF59E7E36833F480620CD061
:101AD00023F40072B2F5A06F07D0B3F5C06F04D045
:101AE00040F2A2310448FEF73DFD6B68E26823F442
:101AF000E06313436B6047E73A420008002002406E
:101B000000100240E840000800000020080000200B
:101B1000044B054A5B68C3F30223D35C034A106895
:101B2000D840704700100240E0400008000000204C
:101B3000044B054A5B68C3F3C223D35C034A1068B5
:101B4000D840704700100240E0400008000000202C
:101B500038B50D46044620B940F221511148FEF730
:101B600001FD25B940F222510E48FEF7FBFC0F2380
:101B700023600D4B5A6802F0030262605A6802F05B
:101B8000F002A2605A6802F4E062E2605B68DB087F
:101B900003F4E0632361054B1B6803F007032B602C
:101BA00038BD00BF3A420008001002400020024049
:101BB00003682DE9F34113F0130F044603D16A21A2
:101BC0004648FEF7CFFC2368D80729D5636833F46D
:101BD000407303D072214148FEF7C4FC404DEB69CD
:101BE000D90034D40126EB6943F08053EB61EB69F3
:101BF00003F080530193019B3A4F3B68DA0528D5E7
:101C00002B6A626813F4407337D12B6A626823F43D
:101C1000407313432B621EB1EB6923F08053EB61D9
:101C200023689A070ED5A36833F4404303D0B72145
:101C30002A48FEF797FC2A4AA168536823F44043D8
:101C40000B4353602368DB0636D4002012E00026E5
:101C5000D2E73B6843F480733B60FEF7F1FD8046BA
:101C60003B68DB05CCD4FEF7EBFDA0EB0800642855
:101C7000F6D9032002B0BDE8F08102F440729A4226
:101C8000C3D00120184A2B6AC2F84004002023F474
:101C90004071C2F84004D8072962B6D5FEF7D0FDDE
:101CA00041F2883807462B6A9907AED4FEF7C8FD83
:101CB000C01B4045F7D9DCE7E36833F4800304D068
:101CC00040F213110548FEF74DFC054AE1685368E0
:101CD00023F480030B435360B7E700BF8142000841
:101CE00000100240007000400000424203681E4A9B
:101CF00010B5934204460FD0B3F1804F0CD0A2F53B
:101D00009432934208D002F58062934204D04FF49B
:101D1000E8711648FEF726FC94F83D30012B20D1DF
:101D2000022384F83D302368DA6842F00102DA6069
:101D30000D4A93420AD0B3F1804F07D0A2F59432F6
:101D4000934203D002F58062934204D19A6802F074
:101D50000702062A03D01A6842F001021A60002026
:101D600010BD0120FCE700BF002C0140B942000873
:101D70007047704770477047036810B51A6904468A
:101D800091070ED5DA6892070BD56FF002021A613F
:101D9000012202779B699B0777D0FFF7EAFF0023B8
:101DA000237723681A69500710D5DA6851070DD5D3
:101DB0006FF004021A61022222779B69204613F415
:101DC000407F68D0FFF7D5FF0023237723681A6987
:101DD00012070FD5DA6810070CD56FF008021A61E8
:101DE00004222277DB69204699075AD0FFF7C1FF0A
:101DF0000023237723681A69D20610D5DA68D00643
:101E00000DD56FF010021A6108222277DB69204697
:101E100013F4407F4BD0FFF7ACFF002323772368F8
:101E20001A69D10708D5DA68D20705D56FF0010223
:101E300020461A61FEF78AFB23681A69100608D546
:101E4000DA68110605D56FF0800220461A6100F0AD
:101E5000FAFA23681A69520608D5DA68500605D5D9
:101E60006FF0400220461A61FFF785FF23681A6968
:101E7000910622D5DA6892061FD56FF0200220461F
:101E8000BDE810401A6100F0DDBAFFF771FF20468F
:101E9000FFF770FF83E7FFF76BFF2046FFF76AFF4E
:101EA00092E7FFF765FF2046FFF764FFA0E7FFF723
:101EB0005FFF2046FFF75EFFAFE710BD134A0368E0
:101EC00090420AD0B0F1804F07D0A2F594329042F0
:101ED00003D002F58062904207D14A6823F0700374
:101EE0001343CA6823F4407313434A6923F0800301
:101EF000134303608B68C3620B688362034B984291
:101F000004BF0B690363012343617047002C014048
:101F100010B5044600286AD00368364A93420FD0B1
:101F2000B3F1804F0CD0A2F59432934208D002F561
:101F30008062934204D040F213112F48FEF712FB47
:101F4000A36833F010020AD023F04002202A06D002
:101F5000402B04D04FF48A712748FEF703FB236916
:101F600033F4807207D0B3F5007F04D040F215112E
:101F70002148FEF7F7FA4FF6FE72E368013B934201
:101F800004D94FF48B711C48FEF7ECFAA36933F0C7
:101F9000800304D040F217111748FEF7E3FA94F8D3
:101FA0003D3003F0FF0223B9204684F83C20FEF7C1
:101FB00091FB0223206884F83D30211DFFF77EFF4E
:101FC0000123002084F8463084F83E3084F83F3006
:101FD00084F8403084F8413084F8423084F843304B
:101FE00084F8443084F8453084F83D3010BD012039
:101FF000FCE700BF002C0140B942000810B584681E
:102000000A4324F47F4442EA03222243826010BD43
:1020100038B590F83C300546012B0C464FF00200D5
:1020200032D0012385F83D0085F83C300B68B3F5CC
:10203000805F0CD023F03002402A08D0B3F5005F57
:1020400005D022B141F2BE418C48FEF78BFA2B68D5
:102050009A6822F47F4222F077029A602268602A0E
:1020600000F0108174D8402A00F04E812CD8202A2C
:102070000DD00AD832F0100209D00120012385F8D2
:102080003D30002385F83C3038BD302AF5D17C4AFC
:1020900093420FD0B3F1804F0CD0A2F5943293420B
:1020A00008D002F58062934204D041F23051734867
:1020B000FEF758FA2A682168936823F070030B43EF
:1020C00043F0070393609BE0502AD6D16C4A9342B9
:1020D0000FD0B3F1804F0CD0A2F59432934208D0C8
:1020E00002F58062934204D041F2FD416348FEF75D
:1020F00039FA6368B3F5004F09D033F0020206D015
:102100000A2B04D04FF4A8515C48FEF72BFAE36881
:102110000F2B04D941F201515848FEF723FA2B68DE
:102120006168186A1A6AE46822F001021A629A6900
:1021300020F00A0022F0F00242EA041201439A6100
:1021400019629A6822F0700242F057029A6057E0D2
:10215000B2F5805F41D0B2F5005F53D0702A8CD1C8
:10216000474A93420FD0B3F1804F0CD0A2F594327E
:10217000934208D002F58062934204D041F2D141EB
:102180003E48FEF7EFF9A36833F4405304D041F220
:10219000D4413A48FEF7E6F96368B3F5004F09D039
:1021A00033F0020206D00A2B04D041F2D541334865
:1021B000FEF7D8F9E3680F2B04D941F2D6412F4836
:1021C000FEF7D0F9D4E901212868E368FFF716FF8C
:1021D000836843F07703836012E0294A93420FD06B
:1021E000B3F1804F0CD0A2F59432934208D002F59F
:1021F0008062934204D041F2CA412048FEF7B2F90E
:1022000000203BE71E4A93420FD0B3F1804F0CD021
:10221000A2F59432934208D002F58062934204D032
:1022200041F2E9411548FEF79DF9A36833F44053A4
:1022300004D041F2EC411148FEF794F96368B3F51C
:10224000004F09D033F0020206D00A2B04D041F22D
:10225000ED410A48FEF786F9E3680F2B04D941F2F5
:10226000EE410648FEF77EF9D4E901212868E368CB
:10227000FFF7C4FE836843F48043ACE7B94200082B
:10228000002C0140414A93420FD0B3F1804F0CD053
:10229000A2F59432934208D002F58062934204D0B2
:1022A00041F20D513A48FEF75DF96368B3F5004F0E
:1022B00009D033F0020206D00A2B04D041F21051AB
:1022C0003348FEF74FF9E3680F2B04D941F211515F
:1022D0002F48FEF747F92B6860681A6A196AE468A4
:1022E00021F010011962996922F0A00221F47041D5
:1022F00042EA001241EA043199611A629A6822F0B6
:10230000700242F0670221E7204A93420FD0B3F1F6
:10231000804F0CD0A2F59432934208D002F580622F
:10232000934204D041F21D511948FEF71BF963682E
:10233000B3F5004F09D033F0020206D00A2B04D0C7
:102340004FF4A9511248FEF70DF9E3680F2B04D999
:1023500041F221510E48FEF705F92B686168186AB1
:102360001A6AE46822F001021A629A6920F00A00EF
:1023700022F0F00242EA041201439A6119629A685B
:1023800022F0700242F04702E0E600BF002C01405C
:10239000B942000838B5294A0368044693420D46FD
:1023A0000FD0B3F1804F0CD0A2F59432934208D0F5
:1023B00002F58062934204D040F2B4712048FEF7E7
:1023C000D1F82B6833F0300306D0402B04D040F214
:1023D000B5711B48FEF7C6F86B6833F0800304D074
:1023E00040F2B6711648FEF7BDF894F83C30022072
:1023F000012B22D0236884F83D005968286821F019
:10240000700101439A6859600C498B420AD0B3F1BC
:10241000804F07D0A1F594318B4203D001F5806144
:102420008B4204D1696822F080020A439A6001233A
:10243000002084F83D3084F83C0038BD002C014079
:10244000EE4200087047704742682F4B10B59A4221
:10245000044604D940F666612C48FEF783F8E36829
:1024600033F4005304D040F667612848FEF77AF849
:10247000236933F4806207D0B3F5C06F04D040F60F
:1024800068612248FEF76EF84FF6F37263691342F3
:1024900000D123B940F669611C48FEF763F8236850
:1024A000E1681A69206922F440520A431A61A2685D
:1024B000D9680243606921F4B05121F00C01024354
:1024C0000A43DA605A69A16922F440720A435A61E8
:1024D0000F4A934215D1FFF72BFB19234343626840
:1024E00020689200B3FBF2F36422B3FBF2F102FB2B
:1024F00011331B013233B3FBF2F303EB011383609F
:1025000010BDFFF705FBE8E720AA440026430008BA
:102510000038014010B5044600285CD0816903688A
:102520002E4A00294BD093420CD0A2F5744293421C
:1025300008D002F58062934204D04FF4B771284866
:10254000FEF710F8A36933F4407304D040F26F1122
:102550002348FEF707F8A36833F4805304D040F211
:1025600075111F48FDF7FEFF94F8413003F0FF029C
:1025700023B9204684F84020FEF7DEF824232268A1
:1025800084F84130D368204623F40053D360FFF72A
:102590005BFF236800201A6922F490421A615A698D
:1025A00022F02A025A61DA6842F40052DA602023EB
:1025B000606484F8413084F84230606310BD934217
:1025C000C9D0084A9342C6D002F580629342C2D075
:1025D00040F27311BCE70120F0E700BF0038014072
:1025E000264300080044004084B001A880E80E00A3
:1025F00004B000207047B0F8403023F47C535B04F3
:102600005B0CA0F84030002070470020704784B079
:1026100010B5044603A880E80E0000200123A4F8AA
:102620004030A4F84000A4F84400A4F85000BDE8ED
:10263000104004B07047002070470000EFF305839E
:1026400013B16FF005007047EFF31083002BF8D142
:10265000074B1868022806D1EFF31183002BF0D145
:102660004FF0FF3070470028FAD101221A607047FE
:102670007C0B002010B5EFF3058313B16FF005005C
:1026800010BDEFF31084002CF8D1094B1A68022A10
:1026900006D1EFF31183002BF0D14FF0FF30EFE7BD
:1026A000012AFAD102221A6000F0E2FF2046E7E791
:1026B0007C0B0020F0B51446002287B00B46059233
:1026C000EFF3058252BBEFF310823ABB244A126843
:1026D000022A02D1EFF3118202BBF8B100228DF879
:1026E0001320002C37D0216809B90DF11301A56919
:1026F00025B16A1E372A02D9002010E01825626829
:10270000D207F9D4666966B1B208D4E9027C57B140
:10271000BCF15B0F02D9246904B1AEB9059807B0CA
:10272000F0BD8022F1E7BCF1000FF7D12469002C45
:10273000F4D105ACCDE9005492B200F06BFF012852
:102740001CBF00230593E9E7CDE90147009500F0A0
:102750002AFF0590E2E7182580220DF11301E8E732
:102760007C0B002008B5EFF3058313B16FF0050073
:1027700008BDEFF31083002BF8D1064B1B68022B2A
:1027800003D1EFF31183002BF0D108B101F0CEF8A3
:102790000020EDE77C0B0020034B0360034B0B6034
:1027A00080231360704700BF200B00202009002009
:1027B000034B0360034B0B604FF48073136070474F
:1027C000C4080020C40400204FF0FF3200F10803C9
:1027D000C0E90223436003610023036070470023C4
:1027E0000361704743689A684B608A6051609960E2
:1027F0000368086101330360704730B50C68631CDF
:102800000AD103695A684A6091608B605960036815
:1028100008610133036030BD00F1080213465268BD
:102820001568A542FAD9EDE70369D0E901128A607B
:1028300051605968814208BF5A60002202611A68DB
:10284000013A1A601868704706480068006880F30B
:10285000088862B661B6BFF34F8FBFF36F8F00DF9A
:1028600000BF000008ED00E0002382B001930D4B93
:102870001B68013308D04FF0500383F31188BFF376
:102880006F8FBFF34F8FFEE74FF0500383F3118834
:10289000BFF36F8FBFF34F8F019B002BFCD002B0B3
:1028A000704700BF0C0000204FF0807340F8043CDC
:1028B000054B21F0010140F8081C40F80C3C40F8A1
:1028C000202C4038704700BF692800080000000035
:1028D000074B19680868B0E8F00F80F30988BFF368
:1028E0006F8F4FF0000080F311884EF00D0E70478F
:1028F000D81C00204FF0500383F31188BFF36F8F73
:10290000BFF34F8F0A4A13680133012B13600ED1B6
:102910004FF0E023D3F8043DDBB243B14FF0500356
:1029200083F31188BFF36F8FBFF34F8FFEE77047BC
:102930000C000020084A136843B94FF0500383F39A
:102940001188BFF36F8FBFF34F8FFEE7013B13601A
:102950000BB983F3118870470C00002000000000C1
:10296000EFF30980BFF36F8F0D4B1A6820E9F00F6A
:1029700010602DE908404FF0500080F3118800F0FE
:10298000F9FF4FF0000080F31188BDE80840196896
:102990000868B0E8F00F80F30988BFF36F8F7047C5
:1029A000D81C002008B54FF0500383F31188BFF303
:1029B0006F8FBFF34F8F00F0AFFE28B14FF0E023D1
:1029C0004FF08052C3F8042D002383F3118808BD13
:1029D0004FF0E02200234FF47A7113619361044BAE
:1029E0001B68B3FBF1F3013B53610723136170478D
:1029F0000000002013B5274B1A78D2B20192FF22B3
:102A00001A701B78244ADBB28DF803309DF803302E
:102A100003F0500313700723204A13609DF803103E
:102A2000136809060AD4032B11D04FF0500383F327
:102A30001188BFF36F8FBFF34F8FFEE7013B136029
:102A40009DF803305B00DBB28DF80330E6E74FF40E
:102A500040731360019B0F4ADBB213704FF0E02309
:102A60000024D3F8202D42F47002C3F8202DD3F8AF
:102A7000202D42F07042C3F8202DFFF7A9FF084B2C
:102A80001C60FFF7E1FE00F075FF2046FFF7ECFE4B
:102A900002B010BD00E400E0840B0020800B002099
:102AA0000C000020EFF305830F2B0ED9114A9B5C1D
:102AB000114A12789A4208D94FF0500383F31188D3
:102AC000BFF36F8FBFF34F8FFEE74FF0E0230B4A4A
:102AD000D3F80C3D126803F4E063934208D94FF039
:102AE000500383F31188BFF36F8FBFF34F8FFEE75F
:102AF000704700BFF0E300E0840B0020800B002053
:102B000030B5114B1A461B688342FBD354684168A9
:102B10001519A84206D1214450188342516010D1A2
:102B2000104602E04418A3420CD1084C2468A3428A
:102B30001FBF5C68641844601C680460824218BF50
:102B4000106030BD0360F9E7980B0020940B002063
:102B50002DE9F041044600F0D1FD3F493F4D0B689F
:102B60000BBB3F4A56071FBFD01D20F0070002F5E0
:102B70004062131A0CBF4FF4406302460020134416
:102B8000384E083B23F0070370603260C3E9000051
:102B9000981AC2E900300B60334B1860334B186051
:102BA0004FF000432B602F68274205D000F04AFE0B
:102BB00000263046BDE8F081002CF7D004F1080370
:102BC00060071CBF23F007030833002BEED0DFF8AB
:102BD0009C80D8F800509D42E8D3224A146860686F
:102BE000984201D22668A6B90968A142DED02168C0
:102BF00016681160C21A102A12D9E01841070BD0CA
:102C00004FF0500383F31188BFF36F8FBFF34F8FE3
:102C1000FEE722463446E2E742606360FFF770FF5A
:102C20000023114962680868AD1A17438542236082
:102C300006F10806676038BF0D60C8F8005000F064
:102C400001FE7307B5D04FF0500383F31188BFF333
:102C50006F8FBFF34F8FFEE7940B0020880B00208F
:102C6000A00B0020980B00208C0B0020900B002064
:102C700010B5044670B3184A50F8043C1268134269
:102C800008D14FF0500383F31188BFF36F8FBFF368
:102C90004F8FFEE750F8081C41B14FF0500383F30B
:102CA0001188BFF36F8FBFF34F8FFEE723EA020354
:102CB00040F8043C00F022FD084A54F8043C116836
:102CC000A4F108000B441360FFF71AFFBDE81040A1
:102CD00000F0B8BD10BD00BF880B0020900B002095
:102CE00010B50446FFF706FEA46BFFF723FEB4FA07
:102CF00084F0400910BD70B51646026C0446856B21
:102D000042B906689EB9406800F048FF6660013528
:102D1000A56370BD6EB9806801F0B0F9A368226C3C
:102D200013446268A360934224BF2368A360002019
:102D3000EDE7C06801F0A2F9226CE36851429B1AEA
:102D40002268E36093423EBF63685B18E360022E33
:102D5000EDD10DB1013DEAE72846D8E703461A6CEC
:102D6000084610B462B1DC68596814448C4228BF2C
:102D70001968DC6028BFD960D96810BC01F07EB941
:102D800010BC704770B50446FFF7B4FD94F8455089
:102D900004F124066DB2002D14DCFF2384F84530C5
:102DA000FFF7C8FDFFF7A6FD94F8445004F11006A4
:102DB0006DB2002D12DCFF2384F84430BDE8704072
:102DC000FFF7B8BD636A002BE7D0304600F048FE3D
:102DD00008B100F0CDFE013D6DB2DCE72369002BA8
:102DE000E9D0304600F03CFE08B100F0C1FE013DE4
:102DF0006DB2DEE738B50D46044640B94FF05003DA
:102E000083F31188BFF36F8FBFF34F8FFEE7FFF798
:102E100071FDD4E90F314B432268D0185B1A606012
:102E2000A26000201A44FF23A063E26084F84430CB
:102E300084F84530A5B9236973B104F1100000F09E
:102E40000FFE48B14FF0E0234FF08052C3F8042D3D
:102E5000BFF34F8FBFF36F8FFFF76CFD012038BDBD
:102E600004F11000FFF7B0FC04F12400FFF7ACFC04
:102E7000F2E737B50D461C4640B94FF0500383F3D7
:102E80001188BFF36F8FBFF34F8FFEE743B94FF049
:102E9000500383F31188BFF36F8FBFF34F8FFEE7AB
:102EA000F2B141B94FF0500383F31188BFF36F8F34
:102EB000BFF34F8FFEE750230193019B502B1ED190
:102EC0000121C4E90F0584F8461020462260FFF76F
:102ED00091FF20469DF8183084F84C3003B030BD87
:102EE00041B14FF0500383F31188BFF36F8FBFF3ED
:102EF0004F8FFEE750230193019B502B08D04FF0DA
:102F0000500383F31188BFF36F8FBFF34F8FFEE73A
:102F10002246D5E7F0B585B00E461D46044601921F
:102F200040B94FF0500383F31188BFF36F8FBFF3A5
:102F30004F8FFEE751B9036C43B14FF0500383F359
:102F40001188BFF36F8FBFF34F8FFEE7022D0BD1B8
:102F5000E36B012B08D04FF0500383F31188BFF3CC
:102F60006F8FBFF34F8FFEE700F008FE08B9019B9B
:102F700003BBFFF7BFFCA26BE36B9A4223D22A4646
:102F800031462046FFF7B7FE636A1BB104F1240007
:102F900000F066FD48B14FF0E0234FF08052C3F8D7
:102FA000042DBFF34F8FBFF36F8FFFF7C3FC0120DA
:102FB00005B0F0BD4FF0500383F31188BFF36F8F5E
:102FC000BFF34F8FFEE7022DD9D000231F4637E015
:102FD00013B902A800F084FDFFF7ACFC00F08EFBF3
:102FE000FFF788FC94F84430FF2B08BF84F8447046
:102FF00094F84530FF2B08BF84F84570FFF79AFC22
:1030000001A902A800F078FD002839D1FFF772FC71
:10301000A26BE36B9A421AD1FFF78CFC019904F181
:10302000100000F0E3FC2046FFF7ACFE00F00AFCC5
:10303000D8B1FFF75FFCA36BE26B9A429FD80123E4
:10304000019A002AC4D1FFF775FC0020B0E7FFF712
:1030500071FC2046FFF796FE00F0F4FBFFF74AFCF8
:10306000A26BE36B9A42EAD289E74FF0E0234FF07C
:103070008052C3F8042DBFF34F8FBFF36F8FEDE77E
:103080002046FFF77FFE00F0DDFBDEE72DE9F84389
:10309000894617461E46044640B94FF0500383F355
:1030A0001188BFF36F8FBFF34F8FFEE751B9036CE9
:1030B00043B14FF0500383F31188BFF36F8FBFF319
:1030C0004F8FFEE7022E0BD1E36B012B08D04FF0A0
:1030D000500383F31188BFF36F8FBFF34F8FFEE769
:1030E000FFF7E0FCEFF311884FF0500383F31188F2
:1030F000BFF36F8FBFF34F8FA26BE36B9A4201D385
:10310000022E1DD194F845503246494620466DB2F4
:10311000FFF7F1FD6B1C0ED1636A3BB104F1240093
:1031200000F09EFC10B10FB101233B60012088F339
:103130001188BDE8F88301356DB284F84550F5E794
:103140000020F4E7F0B585B00E460446019240B980
:103150004FF0500383F31188BFF36F8FBFF34F8F8E
:10316000FEE751B9036C43B14FF0500383F311886C
:10317000BFF36F8FBFF34F8FFEE700F0FFFC50B936
:10318000019B43B14FF0500383F31188BFF36F8F5E
:10319000BFF34F8FFEE7FFF7ADFBA56BDDB1314607
:1031A0002046013DFFF7DAFDA563236973B104F101
:1031B000100000F055FC48B14FF0E0234FF0805272
:1031C000C3F8042DBFF34F8FBFF36F8FFFF7B2FB30
:1031D000012005B0F0BD019B1BB9FFF7ABFB002040
:1031E000F7E702A800F07CFC2F46FFF7A3FB00F0F6
:1031F00085FAFFF77FFB94F84430FF2B08BF84F873
:10320000447094F84530FF2B08BF84F84570FFF7F1
:1032100091FB01A902A800F06FFC38BB2046FFF724
:103220005FFDE8B1019904F1240000F0DFFB2046C6
:10323000FFF7A8FD00F006FB48B94FF0E0234FF080
:103240008052C3F8042DBFF34F8FBFF36F8FFFF78A
:1032500051FBA56B002DA2D1019B002BC5D1BCE772
:103260002046FFF78FFD00F0EDFAF0E72046FFF76C
:1032700089FD00F0E7FA2046FFF732FD0028E6D08E
:10328000ADE70000002330B5064A52F8335002EB98
:10329000C3041DB942F83310606030BD0133082B00
:1032A000F3D1FAE7A017002070B504460D46164684
:1032B000FFF720FB94F84430FF2B04BF002384F871
:1032C000443094F84530FF2B04BF002384F8453088
:1032D000FFF730FBA36B2BB93246294604F12400DB
:1032E00000F09EFB2046BDE87040FFF74BBD00009C
:1032F0002DE9F0410446FFF7FDFA304B304E1A68D5
:10330000304F01321A603568002D4BD134601B6894
:10331000012B1FD1B84640460135FFF755FA382D2D
:1033200008F11408F7D1DFF8A080284D4046FFF7D8
:103330004BFA2846FFF748FA2548FFF745FA254893
:10334000FFF742FA2448FFF73FFA244BC3F8008006
:10335000234B1D601420234A136801331360224A53
:1033600063641168E36A8B4200FB037004F104019B
:1033700088BF1360FFF736FAFFF7DCFA1B4B1B68B8
:1033800073B13368DA6AE36A9A4209D24FF0E023F4
:103390004FF08052C3F8042DBFF34F8FBFF36F8FF0
:1033A000BDE8F081114B1A68E36A002AD2D1326875
:1033B000D26A9A4298BF3460CCE700BF041800205C
:1033C000D81C002078180020641800205018002015
:1033D0003418002020180020081800204C18002065
:1033E00048180020E8170020FC170020F8170020DC
:1033F000F8B50646144B154D1C6828680F46043076
:10340000FFF712FA731C07D137B12968104804314D
:10341000BDE8F840FFF7E6B92B68A4195C6007D354
:103420000C4B18682968BDE8F8400431FFF7E5B98E
:10343000094B186829680431FFF7DFF9074B1A6850
:10344000A24288BF1C60F8BD00180020D81C0020D4
:1034500008180020481800204C180020E41700200D
:10346000064A13681968064B19B94FF0FF321A6003
:1034700070471268D268D2685268F8E74C1800208A
:10348000E417002010B590F8593004463BB9006BA2
:10349000FFF7EEFB2046BDE81040FFF7E9BB012B2C
:1034A000F9D0022B08D04FF0500383F31188BFF3FB
:1034B0006F8FBFF34F8FFEE710BD000080B5134C38
:1034C000134F144D236873B9134B1B68012BF8D9A4
:1034D0004FF0E0234FF08052C3F8042DBFF34F8F1D
:1034E000BFF36F8FEDE7FFF705FAFB68DE68301D6D
:1034F000FFF79AF92B68013B2B602368013B23609F
:10350000FFF718FA3046FFF7BDFFDBE71C18002075
:103510002018002004180020781800202DE9F0471A
:103520000D46DDE90994960032460746A521206B39
:10353000984600F076FD236B043E1E4426F00706F5
:103540006B1E04F133020F3513F8011F02F8011F3F
:1035500009B1AB42F8D1089D4FF0000A372D28BFC2
:103560003725201DC4E9135AE56284F843A0FFF70C
:1035700036F9C5F1380504F11800FFF730F9C4F841
:1035800054A04246394630462461A561646284F8FD
:1035900058A0FFF789F92060B9F1000F01D0C9F8F0
:1035A0000040BDE8F08770B586B0DDE90B5445B941
:1035B0004FF0500383F31188BFF36F8FBFF34F8F2A
:1035C000FEE744B94FF0500383F31188BFF36F8FC8
:1035D000BFF34F8FFEE75C260596059E5C2E08D054
:1035E0004FF0500383F31188BFF36F8FBFF34F8FFA
:1035F000FEE72563022584F8595004AD01950A9D24
:1036000002940095FFF78AFF2046FFF771FE0498A9
:1036100006B070BD2DE9F043074685B0900088469E
:1036200016469946FFF794FA054620B94FF0FF3049
:1036300005B0BDE8F0835C20FFF78AFA044698B134
:10364000002380F859300D9B056301930C9B324693
:1036500041460290009338464B46FFF75FFF2046F5
:10366000FFF746FE0120E3E72846FFF701FBDDE711
:1036700010B5002488B007AA06A905A8CDE905441D
:10368000FFF78AF8059B079A0293069B1649CDE936
:10369000004316482346FFF786FF18B300F012FBDD
:1036A000012814D14FF0500383F31188BFF36F8FBB
:1036B000BFF34F8F4FF0FF320D4B1A600D4B186068
:1036C0000D4B1C6008B0BDE81040FFF793B9013006
:1036D00008D14FF0500383F31188BFF36F8FBFF30E
:1036E0004F8FFEE708B010BD5C430008BD340008F2
:1036F000E4170020F817002000180020024A136881
:1037000001331360704700BFE0170020014B1868B9
:10371000704700BF001800203F4B2DE9F74F1B6892
:10372000002B72D13D4B1C6801341C60BCB93C4B72
:103730001A68126842B14FF0500383F31188BFF347
:103740006F8FBFF34F8FFEE7364A19681068186015
:103750001160354A136801331360FFF781FE334D62
:103760004FF0000B2B68324EA342324F11D9142177
:103770003A68D26A4A43B258022A28BF4FF0010B76
:103780002D4A1268002A0CBF5846012003B0BDE83C
:10379000F08FDFF88C90DFF8A4A0D9F80020126831
:1037A0001AB94FF0FF322A60E1E7D9F80020D26859
:1037B000D2F80C80D8F804108C4201D22960D6E7E8
:1037C00008F1040318460193FFF72EF8D8F82810E3
:1037D00019B108F11800FFF727F81423D8F82C00C6
:1037E000DAF80010884288BFCAF8000008F1040126
:1037F00003FB0060FEF7F6FF3868D8F82C10C26AA9
:10380000914228BF4FF0010BC7E70D4A4FF0000B64
:10381000136801331360B3E7E0170020001800209D
:103820004C18002048180020EC170020E417002056
:1038300078180020D81C0020F0170020FC1700206A
:10384000F41700202DE9F041304C236843B94FF0C4
:10385000500383F31188BFF36F8FBFF34F8FFEE7E1
:10386000FFF748F82368013B236024682CB100244B
:10387000FFF760F82046BDE8F081254B1B68002B60
:10388000F5D0244D244EDFF894801DE0EB68DC6811
:10389000271D04F11800FEF7C7FF3846FEF7C4FFE6
:1038A0001420E36A326800FB03809342394688BFE4
:1038B0003360FEF797FF1A4BE26A1B68DB6A9A4295
:1038C00002D30122174B1A602B68002BDED10CB1FA
:1038D000FFF7C6FD144D2C6844B10127114EFFF7C8
:1038E0001BFF00B13760013CF9D12C600D4B1B6808
:1038F000002BBCD04FF0E0234FF08052C3F8042DD2
:10390000BFF34F8FBFF36F8F0124B1E7E0170020A3
:103910000418002034180020FC170020781800201C
:10392000D81C0020F0170020F417002008B550B96B
:103930004FF0E0234FF08052C3F8042DBFF34F8FB8
:10394000BFF36F8F08BD0A4B196841B14FF05003A8
:1039500083F31188BFF36F8FBFF34F8FFEE7FFF73D
:10396000CDFEFFF745FDFFF76DFF0028E0D0E9E74A
:10397000E0170020184B70B51A68184B12B10122DD
:103980001A6070BD1426164D1A602A68154906FB88
:1039900002F3CC58C81894B14468083364680B44E7
:1039A0009C4208BF6368446008BF4360142303FB64
:1039B00002114B68D9680C4B19602A60E1E742B9E3
:1039C0004FF0500383F31188BFF36F8FBFF34F8F16
:1039D000FEE7013ADBE700BFE0170020F017002008
:1039E000FC17002078180020D81C002010B50C46C9
:1039F00040B94FF0500383F31188BFF36F8FBFF3CB
:103A00004F8FFEE7054B19681831FEF7F6FE20468A
:103A1000BDE810400121FFF7EBBC00BFD81C00201F
:103A200038B50D46144640B94FF0500383F3118862
:103A3000BFF36F8FBFF34F8FFEE7084B1968183144
:103A4000FEF7D0FE002C214608BF2846BDE83840CE
:103A500018BF4FF0FF30FFF7CBBC00BFD81C0020D1
:103A600038B5C368DC6844B94FF0500383F311885C
:103A7000BFF36F8FBFF34F8FFEE704F118052846A1
:103A8000FEF7D2FE104B1B68DBB9251D2846FEF75A
:103A9000CBFE0E4A14201168E36A8B42294688BF88
:103AA00013600B4A00FB0320FEF79CFE094BE26A01
:103AB0001B68DB6A9A4285BF0120074B0020186013
:103AC00038BD29460548EFE7E0170020FC17002025
:103AD00078180020D81C0020F0170020341800208F
:103AE000034B1B680360034B1B684360704700BFB8
:103AF000EC1700200018002070B50C46054640B9B0
:103B00004FF0500383F31188BFF36F8FBFF34F8FD4
:103B1000FEE741B94FF0500383F31188BFF36F8F75
:103B2000BFF34F8FFEE7FEF7E5FE0F4B19682368E2
:103B30005A1C10D00D482E6800686A68864201D071
:103B40008A420FD9881A83420AD95B1A134428463D
:103B50002360FFF7C5FF0024FEF7ECFE204670BD92
:103B6000002323600124F7E700180020EC17002051
:103B70000122014B1A607047F0170020054B1B68AB
:103B800033B1054B1868B0FA80F040094000704727
:103B900001207047F8170020E017002038B508B959
:103BA000002038BD1B4B1C68844208D04FF05003E6
:103BB00083F31188BFF36F8FBFF34F8FFEE7236D41
:103BC00043B94FF0500383F31188BFF36F8FBFF3F6
:103BD0004F8FFEE7E16AE26C013B91422365DFD043
:103BE000002BDDD1251D2846FEF71EFE1420E36CB8
:103BF000C3F13802A261084AE36211688B4288BFB0
:103C00001360064A294600FB0320FEF7EBFD012066
:103C1000C7E700BFD81C0020FC1700207818002040
:103C2000914208B5416000610AD8D21A83699A426C
:103C30000DD2084B011D1868FEF7DFFD002008BDFE
:103C40009A4201D2994202D2034B011DF3E70120AF
:103C5000F5E700BFD81D0020DC1D0020F7B5114C92
:103C6000FEF748FE2568BDB90F4F104E3846FEF7E7
:103C7000ABFD3046FEF7A8FD0D4B10211F600D4B2C
:103C80000A201E600C4A0D4B0095FFF7F2F82060E9
:103C900010B10B49FFF7F6FA03B0BDE8F040FEF7AC
:103CA00049BE00BFD41D0020F41D0020E01D0020EF
:103CB000DC1D0020D81D00202C1D0020DC1C002055
:103CC0006143000810B588B0FFF7C8FF124B1B68AE
:103CD000B3B1002407AA06A905A8CDE90544FEF75B
:103CE00067FD059B079A0293069B0C4901930223EB
:103CF0000B4800932346FFF756FC0A4B186040B967
:103D00004FF0500383F31188BFF36F8FBFF34F8FD2
:103D1000FEE7012008B010BDD41D00206643000856
:103D2000213E0008D01D00207FB5164604461A46E5
:103D300040B94FF0500383F31188BFF36F8FBFF387
:103D40004F8FFEE70D4D286880B10529CDE900169B
:103D500002940DDCFFF712FF0023022818BF1A4659
:103D6000694608BF089A2868FFF7D4F804B070BD08
:103D700000236946FFF78AF9F8E700BFD41D002049
:103D80002DE9F3470646FFF7C1FCDFF888800546BA
:103D9000D8F80030834209D91F4F3B681A686AB9C6
:103DA0001E4A116813603960012300E00023284691
:103DB0003360C8F8005002B0BDE8F087DB68DC680B
:103DC000D3F8009004F1040A5046FEF72DFD636A13
:103DD00020469847E369012BDFD1A3694B449945FD
:103DE00006D25146386863602461FEF706FDD4E7C9
:103DF00000234A46194620460093FFF795FF002806
:103E0000CBD14FF0500383F31188BFF36F8FBFF313
:103E10004F8FFEE7CC1D0020DC1D0020D81D0020A8
:103E20002DE9F043694E6A4F89B033681D68002D53
:103E300033D0DB68D3F80080FFF760FC04A8FFF7FD
:103E40009FFF049C8146002C75D1002D58D0404521
:103E50005CD3FFF7F7FC3368DB68DD68281DFEF7ED
:103E6000E3FCEB69012B1AD1A96943464A4628466F
:103E70004144FFF7D5FE90B12346424621462846ED
:103E80000094FFF751FF50B94FF0500383F31188AE
:103E9000BFF36F8FBFF34F8FFEE7A846CCE72846EE
:103EA0006B6A98470022386804A9FFF74BF900288D
:103EB000BBD0049B0698002B40DB069C6369002B5B
:103EC00043D103A8FFF75CFF049B0246092BE9D806
:103ED00001A151F823F000BF533F0008533F0008F1
:103EE000533F0008A53E0008973F0008BB3F00086D
:103EF000533F0008533F0008A53E0008973F0008C5
:103F0000344B1B681C68B4FA84F464092246386890
:103F1000A8EB0901FFF7C8F9FFF794FC0028C1D10D
:103F20004FF0E0234FF08052C3F8042DBFF34F8FC2
:103F3000BFF36F8FB6E7FFF785FCB3E7059B0799E3
:103F40009847049B002BADDBB7E7201DFEF76CFC08
:103F5000B7E7A169059B20461944FFF761FE0028D9
:103F6000A0D0636A20469847E369012B9AD10023C9
:103F7000A269059920460A4400931946FFF7D4FE2A
:103F800000288FD14FF0500383F31188BFF36F8F58
:103F9000BFF34F8FFEE70599A16141B94FF0500380
:103FA00083F31188BFF36F8FBFF34F8FFEE7034694
:103FB00001442046FFF734FE74E794F82C30002BC0
:103FC0007FF470AF2046FEF753FE6BE7DC1D002048
:103FD000D41D0020D81D0020FCF744FB0B480C49E1
:103FE0000C4A002302E0D458C4500433C4188C4255
:103FF000F9D3094A094C002301E013600432A242BC
:10400000FBD300F017F8FCF786FA70470000002099
:10401000100000207843000810000020081E002037
:10402000FEE703460244934200D1704703F8011BA8
:10403000F9E7000070B500260C4D0D4C641BA41070
:10404000A64209D100F028F800260A4D0A4C641B4C
:10405000A410A64205D170BD55F8043B984701361F
:10406000EEE755F8043B98470136F2E77043000845
:104070007043000870430008744300080A449142EA
:1040800000F1FF3300D1704710B511F8014B914298
:1040900003F8014FF9D110BDF8B500BFF8BC08BC5A
:1040A0009E467047F8B500BFF8BC08BC9E467047F6
:1040B00064656661756C745461736B00B040000890
:1040C00000000000000000000000000000000000F0
:1040D00000020000180000000000000000000000C6
:1040E00000000000010203040000000000000000C6
:1040F0000102030406070809447269766572732F8A
:1041000053544D3332463178785F48414C5F4472A6
:10411000697665722F5372632F73746D3332663113
:1041200078785F68616C5F6164632E6300447269D4
:10413000766572732F53544D3332463178785F4829
:10414000414C5F4472697665722F5372632F7374AA
:104150006D3332663178785F68616C5F636F72745B
:1041600065782E6300447269766572732F53544DDF
:104170003332463178785F48414C5F4472697665E6
:10418000722F5372632F73746D3332663178785F98
:1041900068616C5F646D612E63004472697665725C
:1041A000732F53544D3332463178785F48414C5F1A
:1041B0004472697665722F5372632F73746D333254
:1041C000663178785F68616C5F6770696F2E630035
:1041D000447269766572732F53544D333246317889
:1041E000785F48414C5F4472697665722F53726301
:1041F0002F73746D3332663178785F68616C5F69F4
:1042000032632E6300447269766572732F53544D86
:104210003332463178785F48414C5F447269766545
:10422000722F5372632F73746D3332663178785FF7
:1042300068616C5F7063642E6300447269766572B6
:10424000732F53544D3332463178785F48414C5F79
:104250004472697665722F5372632F73746D3332B3
:10426000663178785F68616C5F7263632E6300010A
:104270000202030405060708090A0B0C0D0E0F10B5
:1042800010447269766572732F53544D3332463140
:1042900078785F48414C5F4472697665722F53723B
:1042A000632F73746D3332663178785F68616C5F49
:1042B0007263635F65782E6300447269766572731A
:1042C0002F53544D3332463178785F48414C5F4428
:1042D00072697665722F5372632F73746D33326611
:1042E0003178785F68616C5F74696D2E6300447229
:1042F00069766572732F53544D3332463178785F47
:1043000048414C5F4472697665722F5372632F7314
:10431000746D3332663178785F68616C5F74696D93
:104320005F65782E6300447269766572732F53540B
:104330004D3332463178785F48414C5F447269763C
:1043400065722F5372632F73746D333266317878D0
:104350005F68616C5F756172742E630049444C45FF
:1043600000546D725100546D72205376630000004A
:04437000350100080B
:04437400110100082B
:104378000024F4000100000010000000AAAAAAAA64
:0400000508003FD9D7
:00000001FF
